:020000040800F2
:1000000000000420516F0008C56B0008C96B000890
:10001000CD6B0008D16B0008D56B00080000000014
:10002000000000000000000000000000D96B000884
:10003000DD6B000800000000E16B0008E56B0008C4
:10004000A16F0008A16F0008A16F0008A16F000850
:10005000A16F0008A16F0008A16F0008A16F000840
:10006000A16F0008A16F0008A16F0008A16F000830
:10007000A16F0008E96B0008A16F0008F56B00088C
:10008000A16F0008A16F0008A16F0008A16F000810
:10009000A16F0008A16F0008A16F0008A16F000800
:1000A000A16F0008A16F0008A16F0008A16F0008F0
:1000B000016C0008A16F0008A16F0008A16F000883
:1000C000A16F0008A16F0008A16F0008A16F0008D0
:1000D000A16F0008A16F0008A16F0008A16F0008C0
:1000E000A16F0008A16F0008A16F0008A16F0008B0
:1000F000A16F0008A16F0008A16F0008A16F0008A0
:10010000A16F0008A16F0008A16F0008A16F00088F
:100110000D6C0008A16F0008A16F0008A16F000816
:10012000A16F0008A16F0008A16F0008A16F00086F
:10013000A16F0008000000000000000000000000A7
:10014000000000000000000000000000A16F000897
:10015000A16F0008A16F0008A16F0008A16F00083F
:10016000A16F0008A16F0008A16F0008A16F00082F
:10017000A16F0008196C00080000000000000000DA
:10018000A16F0008A16F0008A16F0008A16F00080F
:10019000A16F0008A16F000800000000A16F000817
:1001A000000000000000000000000000A16F000837
:1001B000A16F0008A16F000800000000000000000F
:1001C000000000000000000000000000000000002F
:1001D000000000000000000000000000A16F000807
:1001E00010B5054C237833B9044B13B10448AFF371
:1001F00000800123237010BD60010020000000007A
:10020000507B000808B5034B1BB103490348AFF30B
:10021000008008BD0000000064010020507B000841
:1002200081F0004102E000BF83F0004330B54FEAA7
:1002300041044FEA430594EA050F08BF90EA020F14
:100240001FBF54EA000C55EA020C7FEA645C7FEAA7
:10025000655C00F0E2804FEA5454D4EB5555B8BFCA
:100260006D420CDD2C4480EA020281EA030382EA3B
:10027000000083EA010180EA020281EA0303362DCD
:1002800088BF30BD11F0004F4FEA01314FF4801CA0
:100290004CEA113102D0404261EB410113F0004FB2
:1002A0004FEA03334CEA133302D0524263EB430369
:1002B00094EA050F00F0A780A4F10104D5F1200E07
:1002C0000DDB02FA0EFC22FA05F2801841F1000162
:1002D00003FA0EF2801843FA05F359410EE0A5F136
:1002E00020050EF1200E012A03FA0EFC28BF4CF067
:1002F000020C43FA05F3C01851EBE37101F000451D
:1003000007D54FF0000EDCF1000C7EEB00006EEB29
:100310000101B1F5801F1BD3B1F5001F0CD34908B3
:100320005FEA30004FEA3C0C04F101044FEA44520A
:1003300012F5800F80F09A80BCF1004F08BF5FEA91
:10034000500C50F1000041EB045141EA050130BD71
:100350005FEA4C0C404141EB0101013C28BFB1F583
:10036000801FE9D291F0000F04BF01460020B1FACE
:1003700081F308BF2033A3F10B03B3F120020CDAA1
:100380000C3208DD02F1140CC2F10C0201FA0CF07F
:1003900021FA02F10CE002F11402D8BFC2F1200CE4
:1003A00001FA02F120FA0CFCDCBF41EA0C0190409A
:1003B000E41AA2BF01EB0451294330BD6FEA0404E3
:1003C0001F3C1CDA0C340EDC04F11404C4F12002CE
:1003D00020FA04F001FA02F340EA030021FA04F3E0
:1003E00045EA030130BDC4F10C04C4F1200220FA37
:1003F00002F001FA04F340EA0300294630BD21FA75
:1004000004F0294630BD94F0000F83F4801306BF3A
:1004100081F480110134013D4EE77FEA645C18BF2E
:100420007FEA655C29D094EA050F08BF90EA020FC5
:1004300005D054EA000C04BF1946104630BD91EABD
:10044000030F1EBF0021002030BD5FEA545C05D1C0
:100450004000494128BF41F0004130BD14F58004FF
:100460003CBF01F5801130BD01F0004545F0FE4173
:1004700041F470014FF0000030BD7FEA645C1ABFA8
:10048000194610467FEA655C1CBF0B46024650EADF
:10049000013406BF52EA033591EA030F41F400210B
:1004A00030BD00BF90F0000F04BF0021704730B591
:1004B0004FF4806404F132044FF000054FF0000166
:1004C00050E700BF90F0000F04BF0021704730B527
:1004D0004FF4806404F1320410F0004548BF4042FC
:1004E0004FF000013EE700BF42004FEAE2014FEA51
:1004F00031014FEA02701FBF12F07F4393F07F4F2C
:1005000081F06051704732F07F4208BF704793F02E
:100510007F4F04BF41F40021704730B54FF4607441
:1005200001F0004521F000411CE700BF50EA010244
:1005300008BF704730B54FF000050AE050EA0102ED
:1005400008BF704730B511F0004502D5404261EB5D
:1005500041014FF4806404F132045FEA915C3FF49E
:10056000D8AE4FF003025FEADC0C18BF03325FEA3B
:10057000DC0C18BF033202EBDC02C2F1200300FAEC
:1005800003FC20FA02F001FA03FE40EA0E0021FA11
:1005900002F11444BDE600BF70B54FF0FF0C4CF4FF
:1005A000E06C1CEA11541DBF1CEA135594EA0C0FB1
:1005B00095EA0C0F00F0DEF82C4481EA030621EAEC
:1005C0004C5123EA4C5350EA013518BF52EA033527
:1005D00041F4801143F4801338D0A0FB02CE4FF0D9
:1005E0000005E1FB02E506F00042E0FB03E54FF009
:1005F0000006E1FB03569CF0000F18BF4EF0010E01
:10060000A4F1FF04B6F5007F64F5407404D25FEAFC
:100610004E0E6D4146EB060642EAC62141EA5551AF
:100620004FEAC52040EA5E504FEACE2EB4F1FD0CF1
:1006300088BFBCF5E06F1ED8BEF1004F08BF5FEA6F
:10064000500E50F1000041EB045170BD06F0004621
:1006500046EA010140EA020081EA0301B4EB5C04CE
:10066000C2BFD4EB0C0541EA045170BD41F48011C6
:100670004FF0000E013C00F3AB8014F1360FDEBFEB
:10068000002001F0004170BDC4F10004203C35DAC7
:100690000C341BDC04F11404C4F1200500FA05F34A
:1006A00020FA04F001FA05F240EA020001F00042EB
:1006B00021F0004110EBD37021FA04F642EB060161
:1006C0005EEA430E08BF20EAD37070BDC4F10C048B
:1006D000C4F1200500FA04F320FA05F001FA04F24F
:1006E00040EA020001F0004110EBD37041F100013B
:1006F0005EEA430E08BF20EAD37070BDC4F1200546
:1007000000FA05F24EEA020E20FA04F301FA05F2AD
:1007100043EA020321FA04F001F0004121FA04F255
:1007200020EA020000EBD3705EEA430E08BF20EA25
:10073000D37070BD94F0000F0FD101F0004640005F
:1007400041EB010111F4801F08BF013CF7D041EAE1
:10075000060195F0000F18BF704703F000465200E5
:1007600043EB030313F4801F08BF013DF7D043EAB6
:100770000603704794EA0C0F0CEA135518BF95EA6C
:100780000C0F0CD050EA410618BF52EA4306D1D1F3
:1007900081EA030101F000414FF0000070BD50EA12
:1007A000410606BF1046194652EA430619D094EA9C
:1007B0000C0F02D150EA013613D195EA0C0F05D186
:1007C00052EA03361CBF104619460AD181EA0301DA
:1007D00001F0004141F0FE4141F470014FF0000092
:1007E00070BD41F0FE4141F4780170BD70B54FF02D
:1007F000FF0C4CF4E06C1CEA11541DBF1CEA1355AD
:1008000094EA0C0F95EA0C0F00F0A7F8A4EB05048E
:1008100081EA030E52EA03354FEA013100F0888085
:100820004FEA03334FF0805545EA131343EA12634E
:100830004FEA022245EA111545EA10654FEA002603
:100840000EF000419D4208BF964244F1FD0404F5BC
:10085000407402D25B084FEA3202B61A65EB030518
:100860005B084FEA32024FF480104FF4002CB6EBD5
:10087000020E75EB030E22BFB61A754640EA0C0055
:100880005B084FEA3202B6EB020E75EB030E22BF95
:10089000B61A754640EA5C005B084FEA3202B6EBD6
:1008A000020E75EB030E22BFB61A754640EA9C0095
:1008B0005B084FEA3202B6EB020E75EB030E22BF65
:1008C000B61A754640EADC0055EA060E18D04FEA23
:1008D000051545EA16754FEA06164FEAC30343EAC3
:1008E00052734FEAC2025FEA1C1CC0D111F4801F90
:1008F0000BD141EA00014FF000004FF0004CB6E789
:1009000011F4801F04BF01430020B4F1FD0C88BF27
:10091000BCF5E06F3FF6AFAEB5EB030C04BFB6EB32
:10092000020C5FEA500C50F1000041EB045170BD25
:100930000EF0004E4EEA113114EB5C04C2BFD4EB52
:100940000C0541EA045170BD41F480114FF0000ED6
:10095000013C90E645EA060E8DE60CEA135594EA52
:100960000C0F08BF95EA0C0F3FF43BAF94EA0C0F55
:100970000AD150EA01347FF434AF95EA0C0F7FF4CA
:1009800025AF104619462CE795EA0C0F06D152EA1E
:1009900003353FF4FDAE1046194622E750EA410602
:1009A00018BF52EA43067FF4C5AE50EA41047FF413
:1009B0000DAF52EA43057FF4EBAE12E74FEA410276
:1009C000B2F1E04324BFB3F5001CDCF1FE5C0DD9AD
:1009D00001F0004C4FEAC0024CEA5070B2F1004FF7
:1009E00040EB830008BF20F00100704711F0804FFA
:1009F00021D113F13872BCBF01F00040704741F4BF
:100A000080114FEA5252C2F11802C2F1200C10FAC2
:100A10000CF320FA02F018BF40F001004FEAC123A6
:100A20004FEAD32303FA0CFC40EA0C0023FA02F34A
:100A30004FEA4303CCE77FEA625307D150EA013320
:100A40001EBF4FF0FE4040F44000704701F00040F0
:100A500040F0FE4040F40000704700BF53B94AB96F
:100A6000002908BF00281CBF4FF0FF314FF0FF30B6
:100A700000F088B9ADF1080C6DE904CE00F006F87D
:100A8000DDF804E0DDE9022304B070472DE9F0470A
:100A9000089D8E4604468846002B4AD18A42174656
:100AA00062D9B2FA82F64EB1C6F1200301FA06F815
:100AB00020FA03F3B74043EA0808B4404FEA174E60
:100AC0001FFA87FCB8FBFEF1230C0EFB118843EAEA
:100AD000084301FB0CF29A4209D9FB1801F1FF30DF
:100AE00080F0EA809A4240F2E78002393B449A1A49
:100AF000A3B2B2FBFEF00EFB102243EA024300FB5E
:100B00000CFC9C4509D9FB1800F1FF3280F0D6801F
:100B10009C4540F2D3803B44023840EA0140A3EBBD
:100B20000C0300211DB1F3400022C5E90032BDE8ED
:100B3000F0878B4205D90DB1C5E9000100210846B7
:100B4000F5E7B3FA83F1002946D1734502D3824217
:100B500000F20581841A6EEB030201209046002DFD
:100B6000E5D0C5E90048E2E7002A00F09080B2FA3B
:100B700082F6002E40F0A4808A1A030C4FEA174E2A
:100B800080B2BCB20121B2FBFEFC0EFB1C2243EA88
:100B9000024304FB0CF29A4207D9FB180CF1FF3810
:100BA00002D29A4200F2E080C4469B1AB3FBFEF2E6
:100BB0000EFB123340EA034302FB04F49C4207D9C4
:100BC000FB1802F1FF3002D29C4200F2CA800246BA
:100BD0001B1B42EA0C40A5E7C1F120068B4022FA1C
:100BE00006F71F430EFA01F420FA06F32EFA06FE6A
:100BF0004FEA1749234300FA01F81FFA87FCBEFBAE
:100C0000F9F01C0C09FB10EE44EA0E4400FB0CFE4C
:100C1000A64502FA01F209D93C1900F1FF3A80F029
:100C20009C80A64540F2998002383C44A4EB0E0417
:100C30001FFA83FEB4FBF9F309FB13444EEA0444A4
:100C400003FB0CFCA44508D93C1903F1FF3E80F0DE
:100C50008280A4457FD9023B3C4443EA0040A4EB98
:100C60000C04A0FB02EC64457346E14662D35FD0FE
:100C70005DB1B8EB030264EB090404FA06F622FA4C
:100C800001F31E43CC40C5E9006400214FE7B1FBEE
:100C9000F2FC010C41EA0E4180B240EA01423B46BF
:100CA00038463C46B846BE462026B1FBF7F1A2EBDB
:100CB000080241EA0C4166E7014618E710462CE7B6
:100CC000C6F120022EFA02F3B740B14020FA02F238
:100CD0004FEA174E0A43B3FBFEF8BCB20EFB1833C3
:100CE000110C41EA034108FB04F9B04089454FEA81
:100CF000104380B23ED9791808F1FF3C01D28945F2
:100D00001FD8A1EB0901B1FBFEF909FB04F80EFBAA
:100D1000191192B242EA0142424529D2BA1809F1A8
:100D2000FF31C4D24245C2D2A9F102013A44BEE722
:100D3000F0459DD2BEEB02036CEB070C0138E14697
:100D400096E7A7EB09094944A8F1020CB1FBFEF9AB
:100D500009FB04F8DBE773467FE7504666E7084681
:100D6000FDE63B44023A33E7ACF1020C3B441CE79E
:100D700049469CE7A1EB0901C446B1FBFEF909FB1A
:100D800004F8C4E7704700BF034613F8012B002A9C
:100D9000FBD1181A0138704702440346934200D130
:100DA000704703F8011BF9E770B50D4D0D4C641B3E
:100DB000A4100026A64209D10B4D0C4C06F0C8FE2B
:100DC000641BA4100026A64205D170BD55F8043B53
:100DD00098470136EEE755F8043B98470136F2E7AD
:100DE000C07B0008C07B0008C07B0008C47B0008F3
:100DF0007047704738B50546002941D051F8043C8A
:100E00000C1F002BB8BFE41800F0E0F81D4A13686F
:100E100033B9636014602846BDE8384000F0DCB8A0
:100E2000A34208D9206821188B4201BF19685B686A
:100E300009182160EDE71A465B680BB1A342FAD9A5
:100E400011685018A0420BD1206801445018834209
:100E50001160E0D118685B68536008441060DAE7FD
:100E600002D90C232B60D6E7206821188B4204BFDF
:100E700019685B68636004BF091821605460CAE7A1
:100E800038BD00BFC002002070B50F4E0C4631685F
:100E9000054611B900F0A6F830602146284600F05A
:100EA000A1F8431C03D14FF0FF34204670BDC41C91
:100EB00024F00304A042F8D0211A284600F092F84A
:100EC0000130F2D1EFE700BFBC0200202DE9F8436A
:100ED000CD1C25F0030508350C2D38BF0C25002D41
:100EE000064601DBA94204D90C2333600020BDE88B
:100EF000F883DFF8D48000F069F8D8F800301C4699
:100F000044BB29463046FFF7BFFF431C044658D177
:100F1000D8F800402746002F43D1002C4BD023683F
:100F20003946304604EB030900F05CF8814542D1B4
:100F300021686D1A29463046FFF7A6FF01303AD0E6
:100F400023682B442360D8F800305A6862BBC8F885
:100F500000700FE02268521B20D40B2A17D96119A8
:100F6000A342256018BF5960636808BFC8F8001025
:100F700062514B60304600F02FF804F10B00231D46
:100F800020F00700C21A1CBF1B1AA350AFE762680B
:100F9000A3420CBFC8F800205A60EBE72346646800
:100FA000AEE73C467F68B6E71A465B68A342FBD1D2
:100FB00000235360DEE70C233360304600F00CF86A
:100FC00094E70560D6E700BFC00200200148FFF7A4
:100FD0000FBF00BFB80200200148FFF70ABF00BFE3
:100FE000B802002038B5064D0023044608462B60A1
:100FF00005F08AFF431C02D12B6803B1236038BD82
:10100000B4020020034AD2F8883043F47003C2F8D7
:101010008830704700ED00E070B582B0E8B190F81C
:1010200095340446056803F0FF02002B5BD00323D0
:10103000B5F1A04F284684F895345FD000F0E8FE63
:10104000251D237C8DF80030206895E80E0000F007
:1010500001FE30B1022384F895340125284602B000
:1010600070BD0146206800F0DBFE01460028F1D18A
:10107000267906B3234622464FF0010C1175D1851F
:10108000013182F815C0B1421076C2E9070042F87A
:10109000240FF3D100210A4683F85412013183F85A
:1010A0005522B14283F85822C3F86422C3E997223B
:1010B00003F12403F0D1207C95E80E008DF80000A8
:1010C000206800F031FF05460028C3D10122237BB0
:1010D0006074934284F8952413D0206801F0B6FA26
:1010E000284602B070BD80F8942404F0E3FF032387
:1010F000B5F1A04F206884F895349FD10023A371E7
:101100009CE7204600F05EFDE7E700BF90F89434CE
:10111000012B0FD0012310B50446006884F89434E5
:1011200000F06EFE206801F081FA0023184684F872
:10113000943410BD022070472DE9F04F066889B045
:101140000446304601F0C0FA10B109B0BDE8F08F96
:101150000546206801F08AFA0028F6D0D6F808384B
:1011600006F500622068C3F30D230392C4F8D4345B
:1011700001F07CFA10F0020F206803D0436903F0FD
:101180000203436101F072FA10F0100F206814D0CE
:10119000836923F010038361376A07F4F01307F0C3
:1011A0000F08B3F5802F00F0DA82B3F5402F00F07E
:1011B0007E82836943F01003836101F057FA10F4D3
:1011C000002F206840F0108201F050FA470300F130
:1011D0006781206801F04AFA0028C0F2D9802068AF
:1011E00001F044FA010500F19780206801F03EFA11
:1011F000030114D52268536903F00063536194F826
:10120000CC34002B40F03C820121204684F8CC14E1
:10121000536DC3F38303C4F8D03405F0D1F82068CC
:1012200001F024FAC70400F1DD80206801F01EFA05
:1012300010F4005F206840F0BE8001F017FA00074C
:1012400000F12581206801F011FA01061CD5B3696F
:1012500023F08003B3612379012B15D9274601259B
:1012600003E001352437AB420ED997F87B22012ADF
:10127000F7D105EBC501206804EB810101F515717B
:1012800001F0DAF82379ECE7206801F0EFF9C20207
:1012900040D52379012B1FD906F512682746012571
:1012A00005E0013508F120082437AB4214D997F83E
:1012B0003C20D8F80010012AF3D10029F1DA2423C8
:1012C00005F00F01206803FB014187F83B20143132
:1012D00001F0B2F82379E4E72068436903F480134E
:1012E000436101F0C3F9830221D4206801F0BEF903
:1012F000400000F1C380206801F0B8F941077FF594
:1013000024AF23685D686A0700F146825A682A4361
:101310005A601AE72068E4E7039B9B68DA0700F14C
:1013200040822068436903F4006343615EE794F8F8
:1013300004C0BCF1010F25D906F532622346012114
:1013400003E0614503F124031CD093F87C020131D2
:10135000156820320128F4D1002DF2DAD4F8D474C3
:1013600087EA1547FF07ECD483F87B02B06940F0A9
:101370008000B06170690506E3D4039A536843F4B2
:10138000007353602068436903F400134361ADE7C1
:10139000039A536823F00103536094F8CC34012B73
:1013A00000F07E81204604F049FF2068436903F085
:1013B0000043436114E701F08BF9206800F07CFEE4
:1013C0002568E07101F07EFCE2790146284600F0D4
:1013D0009DFC204604F004FF2068436903F4005399
:1013E00043612AE7039A10212068536823F0010320
:1013F000536000F04BFD2079D8B106F510634FF62D
:101400007F31996001351A682033854222F4001239
:1014100043F8202CC3F8E811D3F8E02122F400129D
:10142000C3F8E021D3F8E02142F00062C3F8E021E4
:10143000E7D1039AD36943F00113D361E37B002B17
:1014400040F02281039942F22B034A6913434B6116
:101450000B6943F00B030B61D6F8003804F29C4291
:10146000206823F4FE63C6F80038A17901F040F942
:101470002068436903F480534361D7E6204604F0B3
:10148000E9FE2068436903F08043436134E7204666
:1014900004F0A2FE2068436903F008034361D2E62A
:1014A000206801F0EFF881462068B9F1000F3FF4A1
:1014B00091AE06F51067A0464FF0000ABB46CDE995
:1014C0000465054609E05FEA59090AF1010A08F1D5
:1014D00024080BF1200B00F0028119F0010FF2D06B
:1014E0005FFA8AF72846394601F0DEF80646F0072B
:1014F00013D50120039B0AF00F015A6B00FA01F18A
:1015000022EA01025A63CBF80800A179814200F077
:101510004C813946204604F055FE310702D5082398
:10152000CBF80830F20602D51023CBF8083073064A
:1015300002D54023CBF80830B50700F1048130060E
:101540002568C0D5D8E909329A42BCD8A3EB020E6F
:10155000D8F81C1005F5106C07958E450CEB4A1653
:1015600028BF8E46B0690EF103011FFA80FEBEEB64
:10157000910FC0F04481CDF818A022E0D8F81C30BB
:101580003A46D8F8201028469A4528BF9A46A379AB
:1015900000931FFA8AF300F099FFD8F82030D8F8AA
:1015A0002820534452440AF1030AC8F82030B36992
:1015B000C8F828209BB2B3EB9A0FC0F01B81D8F873
:1015C00024309342A3EB020AD8D8DDF818A025688E
:1015D000079B012203F500610AF00F039A404B6B51
:1015E00023EA02034B636EE701F044F80746002844
:1015F00070D0049506F53068A3464FF0000A2068C5
:10160000254607E07F080AF1010A08F120080BF1DE
:10161000240B61D0FC07F5D55FFA8AF4214601F06E
:1016200039F810F0010F81466ED119F0080F5AD128
:1016300019F0100F02D01022C8F8082019F0020F7C
:101640000FD07269130604D5039B5A6842F4806276
:101650005A609BF85722012A00F0E2800223C8F862
:10166000083019F0200F02D02023C8F8083019F4F0
:10167000005F03D04FF40053C8F808302868C1E772
:10168000204604F0C3FDCAE5039AD2F8843043F043
:101690000B03C2F88430536C43F00B035364DBE656
:1016A0000021204684F8CC1404F08AFE7DE608EB85
:1016B000C808082204F29C41304600F01DFFC7F321
:1016C0000A1304EB88022068D2F868120B44C2F8AF
:1016D00068326EE5206877E52C46049D74E528465F
:1016E000049E059D76E529680822C8F8082001F5C2
:1016F0003062086C6E4902EB4A128842936867D8E0
:10170000284604F04FFD93E728680122C8F8082016
:1017100000F53062A97902EB4A12D0F840E00129C5
:10172000936870D063498E4500F08680BAF1000F4F
:1017300004D1D5F86422002A00F0AD802146284665
:1017400004F036FD71E75146049800F09FFB98F8CD
:101750001720012A78D00222CBF80820EFE647F6BE
:10176000F0731F423FF425AD08EBC808C7F30A1217
:10177000304604EB88081746D8F8601200F0BCFE2B
:10178000D8F8603220683B44C8F86032D8F8683234
:101790003B44C8F868320CE5204604F05FFD23683E
:1017A000B4E5204604F032FDBBE5D8E90702024467
:1017B000C8F82020BAF1000F7FF4ABAE626A002AAD
:1017C0007FF4A7AE04F29C42206800F091FFA0E6EF
:1017D00019042DD54FF400412846916004F0E2FC35
:1017E000A97901297FF424AF05F29C42286800F012
:1017F0007FFF1DE7DDF818A0D8F8243025689A424D
:10180000FFF461AEE4E6190726D529498E457FF637
:101810000CAF18047FF509AF4FF40041916004E765
:101820000022214628468BF8572204F00BFD15E7CD
:10183000284604F0B7FCD3E71904EDD498067FF5E9
:101840007DAF2021916079E700223946204688F853
:10185000172004F0FBFC7EE7990602D52021916059
:10186000E3E613498E4501D91B04D5D41169DBF891
:101870007422C1F31201521ACBF86822BAF1000F98
:101880007FF45CAFD5F8641259B1D5F860121144F9
:10189000C5F8601252E705F29C42514600F028FF5D
:1018A0004CE705F29C42012100F022FF46E700BF11
:1018B0000A30544F0A31544F90F89424012A0DD025
:1018C000012210B504460068617484F8942400F085
:1018D0009BFE0023184684F8943410BD0220704704
:1018E00010B501F00F0E090604460EEBCE0C4FEAC0
:1018F0008C0C27D40CF515714FF0000C01440EEB45
:10190000CE0004EB800080F855C2C2F30A0281F8D1
:1019100000E00B718A604A780AB1A1F81AE0022B44
:1019200001D100234B7194F89434012B16D001237C
:10193000206884F8943400F0CBFB0023184684F828
:10194000943410BD0CF114014FF0010C01440EEB66
:10195000CE0004EB800080F815C0D6E7022010BD51
:1019600001F00F0309061A4603EBC30310B54FEA53
:101970008303044619D403F5157102EBC20300205A
:1019800004EB8303214483F855020A7094F89434DD
:10199000012B1AD00123206884F8943400F0DEFB78
:1019A0000023184684F8943410BD03F1140102EBAF
:1019B000C2004FF0010C04EB8003214483F815C0F2
:1019C0000A7094F89434012BE4D1022010BD00BFBA
:1019D00010B501F00F0E144624210EEBCE0C01FBC6
:1019E0000E0100EB8C0C01F51571CCF8643200236C
:1019F0008CF854E2CCF86022CCF868328CF855327E
:101A000082790068012A08BFCCF8704200F004FC1B
:101A1000002010BD01F00F0101EBC10100EB8100BE
:101A2000D0F86802704700BF10B501F00F0E1446E1
:101A300024210EEBCE0C01FB0E0100EB8C0C1431BB
:101A4000CCF8243000238CF814E0CCF828300123A3
:101A5000CCF820208CF81530827900689A4208BFB3
:101A6000CCF8304000F0D8FB002010BD38B501F0B4
:101A70000F050379AB4233D30B0604461DD4242251
:101A800001EBC10302FB010100EB8303002201F51E
:101A9000157183F8552201230D708B7094F89424EE
:101AA0009A421BD0206884F8943400F049FDCDB1EF
:101AB0000023184684F8943438BD242105EBC5036F
:101AC000012201FB050100EB830314315A75012348
:101AD0000D708B7094F894249A42E3D1022038BDA3
:101AE000012038BD04F29C42A179206800F000FE7C
:101AF000DEE700BF01F00F0238B50379934232D31D
:101B000002EBC203090604464FEA83031AD402EB30
:101B1000C20003F51573002504EB8000E11880F87E
:101B2000555200250A708D7094F89434012B18D00A
:101B30000123206884F8943400F03AFD284684F8A4
:101B4000945438BD02EBC2001433012504EB80002D
:101B5000E118457500250A708D7094F89434012BB6
:101B6000E6D1022038BD012038BD00BF10B40468A2
:101B70001204636A29B91A430020A2625DF8044B7B
:101B80007047A06A013903EB104C0AD0002303F11F
:101B90004000013304EB8000994240680CEB104C8C
:101BA000F5D1403142EA0C02002004EB810462606E
:101BB0005DF8044B704700BF034600201B68596264
:101BC000704700BF03464FF0000C09491A68604691
:101BD00010B4012483F8CCC4C3F8D84493695DF8E9
:101BE000044B43F000639361536D19435165704793
:101BF0000300001082B00023019302E00369002B70
:101C000009DB019B01330193019BB3F1706FF5D99F
:101C1000032002B070470A230193019B2BB1019B63
:101C2000013B0193019B002BF9D1036943F00103B0
:101C3000036103E0036913F0010307D0019B013343
:101C40000193019BB3F1706FF4D9E1E7184602B03C
:101C5000704700BF84B010B50DF10C0C04468CE841
:101C60000E009DF811309DF81820012B32D0032B67
:101C700025D1816B012A244B21F480318163C16815
:101C800003EA0103C360C36823F44013C360C3685D
:101C900023F01003C36031D02046FFF7ABFF9DF85F
:101CA0000E30012B07D1A36843F00603A360A3689D
:101CB00043F02003A360BDE8104004B07047C36840
:101CC00043F04003C360FFF795FFA36B43F48033F9
:101CD000A363E4E7816BA3F14213012A21F480316D
:101CE0008163C16803EA0103C360C36843F0100362
:101CF000C360C36823F44013C360CDD1E36843F4E9
:101D00008013E360C8E700BFBFFFBDFF022A0346A0
:101D10000AD04FF41051DA68002022F47052DA60D1
:101D2000DA680A43DA607047234A24480A44824248
:101D30002CD9234A23480A4482422AD9224A2348DA
:101D40000A44824228D9224A22480A44824226D39F
:101D5000214A22480A44824224D9214A21480A447D
:101D6000824222D3204A21480A448242D1D3204AC7
:101D700020480A4482421BD31F4A20480A44824218
:101D80002CBF4FF4C0514FF4E051C4E74FF47051F1
:101D9000C1E74FF46051BEE74FF45051BBE74FF439
:101DA0004051B8E74FF43051B5E74FF42051B2E756
:101DB0004FF40051AFE700BF405327FFFF340C0042
:101DC000401E1BFF3F420F0000DC0BFF7F4F120045
:101DD000808CF9FE20D6130060B6E5FE5FE31600A6
:101DE00000D3CEFE40771B00C05BB3FEC091210044
:101DF00000CA91FE20753800E05459FEE09C410075
:101E0000034600209A6842F001029A60704700BFC2
:101E1000034600209A6822F001029A60704700BFD2
:101E200038B5C3680129054623F0C043C36017D005
:101E3000A1B9C3680C4643F08043C36001E0C82CDD
:101E40000CD00A200A3401F0C1FD6B69DB07F6D41F
:101E5000A4F1C800B0FA80F0400938BD012038BDB7
:101E6000C368002443F00053C36001E0C82CF5D0E0
:101E70000A200A3401F0AAFD6B69DA07F6D5A4F14D
:101E8000C800B0FA80F04009E7E700BF82B0002345
:101E9000019302E00369002B09DB019B01330193ED
:101EA000019BB3F1706FF5D9032002B0704789012F
:101EB000002341F020010193016103E0036913F065
:101EC000200307D0019B01330193019BB3F1706F95
:101ED000F4D9E9E7184602B0704700BF82B000238A
:101EE000019302E00369002B09DB019B013301939D
:101EF000019BB3F1706FF5D9032002B07047002247
:101F000010230192036103E0036913F0100307D06B
:101F1000019B01330193019BB3F1706FF4D9EBE79F
:101F2000184602B0704700BF84B0F8B507AD04464C
:101F300085E80E0000239DF81C509DF81FC09DF8F9
:101F4000210019469DF8266003F14002013304EB9D
:101F500082020F2B5160F7D104F50067002E40F08C
:101F6000A2807B6843F002037B60A36B23F4001321
:101F7000A363236843F040032360236843F0800396
:101F8000236000230128C4F8003ED4F8003836D07E
:101F9000032834D043F00303C4F80038102120464E
:101FA000FFF774FF01462046FFF798FF41EA000E55
:101FB00000225FFA8EFE3A61BEF1000E7A61FA618C
:101FC00018BF4FF0010E3DB3D4F8001904F51063AB
:101FD00000291CDB0021196000204FF67F310132FF
:101FE000186199602033AA423CD0D3F800C0BCF1FC
:101FF000000FEFDA4FF0904CC3F800C0EFE7BCF1F0
:10200000000FC9D043F00103C4F80038C6E74FF011
:102010000061C4F80019DFE73B69002223F48073F4
:102020003B616FF08043A26163619DF81E301BB974
:10203000A36943F01003A361A2691D4B13439DF8EC
:102040002220A3611AB1A36943F00803A361012E02
:1020500003D1A269174B1343A3617046BDE8F84052
:1020600004B07047D4F8002B04F53063002A14DB69
:102070000022002119604FF0000C4FF67F30013232
:10208000C3F810C098602033AA42C5D0196800294F
:10209000EFDA4FF090411960F1E74FF00062C4F8B9
:1020A000002B0022E7E7A36B43F40013A36368E768
:1020B00000383C8004000040D0F808389A0705D466
:1020C00013F0060F0CBF00200F207047022070474E
:1020D00030B50A78012300F5006C02F00F0E00EB1A
:1020E000421003FA0EF391F801E0BEF1010F18D08F
:1020F000DCF81C2042EA0343CCF81C30D0F8003B4B
:102100001B040CD48B68D0F8004BC3F30A03097985
:10211000114A234343EA81431A43C0F8002B0020AD
:1021200030BDDCF81C402343CCF81C30D0F800391B
:102130001C04F4D48B68D0F80059C3F30A030C795B
:1021400005492B4343EA844343EA82531943C0F8C9
:102150000019002030BD00BF008000104A780B78C5
:10216000012A00EB431C2AD0DCF8002B002A19DBE3
:102170004FF4803203F00F03D0F83C1802FA03F357
:10218000234A21EA0301C0F83C18D0F81C1821EAC0
:102190000303C0F81C380020DCF8003B1A40CCF8E0
:1021A000002B7047DCF8002B42F00062CCF8002BCB
:1021B000DCF8002B42F08042CCF8002BD8E7DCF8AA
:1021C0000029002A0BDADCF8002942F00062CCF882
:1021D0000029DCF8002942F08042CCF8002903F005
:1021E0000F020123D0F83C1893400A4A21EA030168
:1021F000C0F83C18D0F81C1821EA0303C0F81C38BA
:102200000020DCF800391A40CCF80029704700BFE4
:102210000078F3EF007833EC2DE9F0414C780E783C
:10222000012C0D6900EB461391F804E05FD0D3F860
:10223000104B03F5306C6FF31204C3F8104BD3F856
:10224000104B6FF3DC44C3F8104B8C685EBB05B1D8
:102250000C610C62DCF81050C4F31204012A44EA49
:102260000504CCF81040DCF8104044F40024CCF80D
:10227000104036D0BEF1010F0CD1D0F8082812F46E
:10228000807FD3F8002B0CBF42F0005242F0805206
:10229000C3F8002BD3F8002B42F00442C3F8002B04
:1022A0000020BDE8F081002DD4D02544614E012AE4
:1022B00005F1FF35B5FBF4F5ADB205FB04F406EA14
:1022C000C545DCF810600C62C4F3120445EA06054B
:1022D000CCF81050DCF8105044EA0504CCF810405B
:1022E000C8D1CA68002AC5D0CCF81420C2E703F5CB
:1022F00010641DBB2569012A6FF3DC452561256942
:1023000045F40025256125696FF3120525612DD05F
:10231000D3F80049BEF1010F44F00444C3F800496A
:102320000C6962D0002CBBD006F00F060123D0F858
:102330003428B3401343C0F83438B1E727696FF34A
:102340001207276127696FF3DC4727618F684EBB4F
:10235000AF426CD3276947F4002727612769C5F38B
:102360001205012A45EA07052561D1D1CA6902B1E2
:102370006261BEF1010F0CD1D0F8082812F4807F01
:10238000D3F800290CBF42F0005242F08052C3F84B
:102390000029D3F80029002042F00442C3F80029A4
:1023A000BDE8F08107EB050CD4F81080BEF1010FF9
:1023B0000CF1FF3CBCFBF7FC1E4F07EACC471FFAB1
:1023C0008CFC47EA08072761C8D14FEA4C7C0CF027
:1023D000C047D4F810C02CF0C04CC4F810C0D4F8DA
:1023E00010C047EA0C072761B8E7D0F8085815F481
:1023F000807FD3F800590CBF45F0005545F080555B
:10240000C3F80059002A7FF44BAFA3B203339B08F3
:102410003FF446AFCA6800EB063602EB830306F5CD
:10242000805652F8041B93423160FAD138E73D469A
:102430000F618FE70000F81F10B4002383B04A78C3
:102440000193012A0B784FEA431323D000F5306043
:10245000C158C218002904DB002003B05DF8044B0A
:102460007047C45842F2107144F00064C450C4581C
:1024700044F08044C45002E01368002BECDA019B66
:1024800001330193019B8B42F6D9012003B05DF823
:10249000044B704700F51060C158C2180029DBDA00
:1024A000C45842F2107144F00064C450C45844F05F
:1024B0008044C45002E01368002BCDDA019B013345
:1024C0000193019B8B42F6D9DFE700BF10B49DF862
:1024D000044064B903339B0809D0013201EB830344
:1024E00000EB023051F8042B8B420260FAD100203D
:1024F0005DF8044B704700BF70B55FEA920E054669
:1025000002F0030619D000F580548C4600230133F5
:1025100022689E454CF8042BF9D101EB8E005EB188
:1025200005F5805506440022296821FA02F3083295
:1025300000F8013BB042F8D170BD0846EFE700BF9C
:102540000B784A7800EB4310003B18BF0123012AA7
:102550000CD0D0F8002B002A00DBA3B9D0F8003B48
:1025600043F40013C0F8003B00207047D0F8002966
:10257000002A00DB73B9D0F8003943F40013C0F827
:10258000003900207047D0F8003B23F08043C0F8AA
:10259000003BE3E7D0F8003923F08043C0F800396E
:1025A000D0F8003943F40013C0F80039E9E700BF60
:1025B0000B794A7891F800C0023B012A00EB4C10DD
:1025C000DBB211D0D0F8002B012B22F40012C0F89E
:1025D000002B01D900207047D0F8003B43F0805316
:1025E000C0F8003B00207047D0F80029012B22F4EE
:1025F0000012C0F80029EDD8D0F8003943F080531C
:10260000C0F8003900207047034609010020D3F8C4
:10261000002801F4FE6122F4FE62C3F80028D3F81A
:1026200000281143C3F80018704700BF034600207C
:10263000D3F8002E03F5006122F00302C3F8002E48
:10264000D3F8043823F002034B60704703460020A0
:10265000D3F8002E03F5006122F00302C3F8002E28
:10266000D3F8043843F002034B6070474269806935
:1026700010407047D0F81838D0F81C081840000CEB
:10268000704700BFD0F81838D0F81C08184080B246
:10269000704700BF00EB411100F50060D1F8082B36
:1026A00040691040704700BFD0F81028D0F8343887
:1026B00000EB411001F00F01D0F80809CB40DB011D
:1026C000DBB2134318407047406900F001007047C7
:1026D00003460020D3F8002903F500616FF30A02D6
:1026E000C3F80029D3F8043843F480734B60704773
:1026F00030B4056C00F53063104CA54203D9D0F816
:10270000004B002C16DB002401291C611C6944F4D9
:1027100000241C611C6944F018041C611C6944F00D
:10272000C0441C6106D15A61D0F8003B43F08023BD
:10273000C0F8003B002030BC704700BF0A30544F47
:10274000002800F0E78103682DE9F041DD0782B041
:10275000044635D59A498A6802F00C02042A00F032
:10276000E0808A6802F00C02082A00F0D6806368D4
:10277000B3F5803F10D0002B00F0FD80B3F5A02F03
:102780008F4B1A6800F0858122F480321A601A6833
:1027900022F480221A6004E0894A136843F48033EB
:1027A000136001F00DF9864E054605E001F008F9C9
:1027B000401B642800F2DB8033689B03F6D5236856
:1027C0009D0728D57E4A916811F00C0F00F0898092
:1027D000916801F00C0108297FD0E368784D002B47
:1027E00000F003812B6843F001032B6001F0E8F84F
:1027F000064605E001F0E4F8801B022800F2B780ED
:102800002B689F07F6D52B68226923F0F80343EA6B
:10281000C2032B6023681A0728D45E073DD5684B96
:102820001A6CD50077D41A6C012542F080521A64D4
:102830001B6C03F080530193019B624E3368D805F3
:1028400040F18580A368012B00F0E180002B00F0AF
:10285000A880052B5A4B1A6F00F0238122F0010249
:102860001A671A6F22F004021A67D5E06369544DA3
:10287000002B3FD06B6F43F001036B6701F0A0F8B2
:10288000064604E001F09CF8801B02286FD86B6FAD
:102890009B07F7D523685E07C1D4A369CBB1484D28
:1028A000AA6802F00C02082A00F0C980022B2B68EB
:1028B00023F080732B6000F0FC8001F081F8044667
:1028C00004E001F07DF8001B022850D82B689B0122
:1028D000F7D4002002B0BDE8F081526851023FF504
:1028E0007CAF374A1268920725D5E268012A22D0C8
:1028F0000120EFE76B6F23F001036B6701F060F8D5
:10290000064604E001F05CF8801B02282FD86B6FAC
:102910009F07F7D4BEE700258FE74A6851027FF58D
:1029200026AF274A126892037FF54AAF6268002AF1
:102930007FF446AFDCE7224920690A6822F0F802FA
:1029400042EAC0020A601A077FF567AF8EE7336874
:1029500043F48073336001F033F807463368D905D8
:102960003FF570AF01F02CF8C01B6428F6D90320A6
:1029700002B0BDE8F081124D2B6823F480332B6048
:102980002B6823F480232B6001F01AF8064604E03C
:1029900001F016F8801B6428E9D82B689F03F7D450
:1029A0000DE7074E41F28838336F23F00103336798
:1029B000336F23F00403336701F002F8074608E0A1
:1029C000003802400070004000F0FAFFC01B404594
:1029D000CDD8336F9B07F7D4002D3FF45EAF4E4A3E
:1029E000136C23F08053136457E72B6823F0010323
:1029F0002B6000F0E5FF064604E000F0E1FF801BDD
:102A00000228B4D82B689907F7D4236803E7424A11
:102A1000136F43F00103136700F0D2FF3E4F41F202
:102A20008838064604E000F0CBFF801B40459ED866
:102A30003B6F9A07F7D5002D3FF42FAFCFE7012B5F
:102A40006A683FF455AF02F48003E1698B427FF47A
:102A50004FAF02F03F03216A8B427FF449AF47F644
:102A6000C073616A1340B3EB811F7FF441AFA36A67
:102A700002F440315B08013BB1EB034F7FF438AF08
:102A8000E36A02F07062B2EB036F14BF0120002012
:102A900020E742F480221A601A6842F480321A60F9
:102AA0007FE642F004021A671A6F42F001021A67C9
:102AB000B2E700F085FF064605E000F081FF801BCD
:102AC00002283FF654AF2B689901F6D4A26A606AD7
:102AD0005208D4E90731013A0B43E16A43EA024361
:102AE00043EA801343EA016343F000536B602B68B1
:102AF00043F080732B6000F063FF074D044605E050
:102B000000F05EFF001B02283FF631AF2B689A01F0
:102B1000F6D5DEE60120704700380240164908B5B8
:102B20008B6803F00C03042B1BD0082B01D0134837
:102B300008BD4A684B6802F03F02496813F48003FD
:102B400011D10E48C1F38811A1FB0001FDF786FFEA
:102B5000094B5B68C3F3014301335B00B0FBF3F047
:102B600008BD074808BD0648C1F388110023A1FB32
:102B70000001FDF773FFEBE7003802400024F4008A
:102B800000366E01002800F08C80494A136803F07B
:102B90000F038B422DE9F04104460D460CD2136819
:102BA00023F00F030B431360136803F00F038B42F2
:102BB00002D00120BDE8F0812368980714D5590799
:102BC00004D53C498A6842F4E0528A601A0704D569
:102BD00038498A6842F460428A603649A0688A6847
:102BE00022F0F00202438A60DF0720D56268314B91
:102BF000012A1B6857D0022A50D09907D9D52D4EEB
:102C000041F28838B36823F003031343B36000F044
:102C1000D7FE074604E000F0D3FEC01B404545D870
:102C2000B368626803F00C03B3EB820FF3D1204A60
:102C3000136803F00F03AB4209D9136823F00F03A5
:102C40002B431360136803F00F03AB42B1D1236829
:102C50005A0706D51749E0688A6822F4E052024311
:102C60008A601B0707D5134A2169936823F46043E0
:102C700043EAC1039360FFF751FF0E4A0E4C03462F
:102C800092680E48C2F303120D490068A25CD3405B
:102C90000B6000F059FE0020BDE8F0819801AED431
:102CA00087E7012070479E03A9D482E7032081E7CC
:102CB000003C024000380240707B000858000020B1
:102CC00050000020014B1868704700BF50000020E2
:102CD000044B05499B68054AC3F382230868D35C0B
:102CE000D84070470038024050000020687B000840
:102CF000044B05499B68054AC3F342330868D35C1B
:102D0000D84070470038024050000020687B00081F
:102D100003682DE9F04313F0010683B004460BD09D
:102D2000A24A916821F400019160C66A916831431A
:102D3000B6FA86F67609916013F4002510D09B4907
:102D4000656BD1F88C20B5F5801F22F4401242EA61
:102D50000502C1F88C2000F0BE81B5FA85F56D0939
:102D6000D90210D59148A16BD0F88C20B1F5800F15
:102D700022F4400242EA0102C0F88C2000F0AE8149
:102D8000002908BF01259A0600F16081DA060CD5FA
:102D9000864AD2F88C1021F08071C2F88C10D2F8DB
:102DA0008C10206B0143C2F88C105F0408D57F495A
:102DB000E06DD1F8902022F440320243C1F8902017
:102DC000180408D57949206ED1F8902022F44022C9
:102DD0000243C1F89020D90308D57449606ED1F838
:102DE000902022F440120243C1F890205A0608D5E0
:102DF0006E49E06BD1F8902022F003020243C1F843
:102E000090201F0608D56949206CD1F8902022F047
:102E10000C020243C1F89020D80508D56349606CC4
:102E2000D1F8902022F030020243C1F89020990599
:102E300008D55E49A06CD1F8902022F0C002024370
:102E4000C1F890205A0508D55849E06CD1F8902077
:102E500022F440720243C1F890201F0508D553495F
:102E6000206DD1F8902022F440620243C1F89020F6
:102E7000D80408D54D49606DD1F8902022F4405215
:102E80000243C1F89020990408D54849A06DD1F8B3
:102E9000902022F440420243C1F890209A020CD5BF
:102EA0004249606FD1F89020B0F1006F22F00062CB
:102EB00008BF01250243C1F890205F0308D53B49B4
:102EC000E06ED1F8902022F040720243C1F89020C9
:102ED000180208D53549A06FD1F8902022F0805211
:102EE0000243C1F8902059014DD40EB99A0144D53E
:102EF0002E4E336823F08063336000F061FD074697
:102F000005E000F05DFDC31B642B00F29B8033687D
:102F10001B01F6D42368DF070DD5E26A5AB9A2680F
:102F2000D6F884106068120701F0706142EA8012DE
:102F30000A43C6F88420180304D5626BB2F5801FDB
:102F400000F0D980D90204D5A26BB2F5800F00F051
:102F5000D2809A0100F1C480144E336843F080633C
:102F6000336000F02DFD074604E000F029FDC01B92
:102F7000642867D833681B01F7D5012D0DD00020D8
:102F800003B0BDE8F0830949E06FD1F8902022F04A
:102F900000520243C1F89020A7E7044D2B6823F0AC
:102FA00080532B6000F00CFD064606E0003802401E
:102FB00000F006FD801B642844D82B689F00F7D4DE
:102FC0002368180340F1CB80626B002A40F0C78071
:102FD0006749D4E90452D1F88800120600F4403061
:102FE00042EA85120243C1F88820D1F88C20206A79
:102FF00022F4F852013842EA0022C1F88C209A02E9
:1030000010D5636FB3F1006F0CD15949A3692069E2
:10301000D1F888201B0402F0706243EA8013134346
:10302000C1F88830524C236843F08053236000F08D
:10303000C7FC054623689B00A1D400F0C1FC401BDF
:103040006428F7D9032003B0BDE8F083484B494F0B
:103050001A6C42F080521A641B6C03F08053019387
:10306000019B3B6843F480733B6000F0A9FC804601
:1030700005E000F0A5FCA0EB08006428E2D83B685E
:10308000DB05F6D53A4FA36A3A6F03F4407112F4A8
:10309000407210D08A420ED03A6F386F22F44072DC
:1030A00040F480303867386F20F4803038673A67F2
:1030B0003A6FD0073FD4B1F5407F33D02C498A68AE
:1030C00022F4F8128A602A4AC3F30B03116F0B43F0
:1030D000136723685AE60025012641E6012652E6D9
:1030E000211D0EC91B0643EA811343EA0273204ADD
:1030F000C2F8843030E71E49E268D1F8840066687F
:10310000120600F0E04042EA86120243C1F8842031
:10311000D1F88C00E26920F01F00013A0243C1F8A7
:103120008C2016E7124814498268194022F4F812DC
:103130000A438260C7E700F043FC41F288398046C9
:1031400006E000F03DFCA0EB080048453FF67AAFF2
:103150003B6F9907F5D5A36A03F44071ABE7D90239
:103160007FF54DAFA26B002A7FF449AF30E700BF77
:103170000038024000700040FFFCFF0F2DE9F04FC7
:10318000002385B04FF0010B0C68DFF818A28946C8
:1031900003E00133102B00F091800BFA03F202EAF6
:1031A0000408A243F5D1D9F804105A00032501F010
:1031B000030C95400CF1FF36ED43012E40F2818067
:1031C000BCF1030F40F0DE8006680CFA02F211F445
:1031D000403F05EA060542EA05020260D9D0DAF866
:1031E000442023F0030503F003060F2742F4804236
:1031F00005F18045B600CAF8442005F59C35DAF89B
:10320000442007FA06FC644F02F48042B84203925D
:10321000039AAA6822EA0C0227D007F58067B84211
:1032200000F08C805D4FB84200F08E80DFF878C1EE
:10323000604500F08F80DFF874C1604500F0908039
:10324000DFF86CC1604500F09180DFF868C160452F
:1032500000F09280DFF860C160450CBF4FF0070CB2
:103260004FF0080C0CFA06F63243AA60CE024C4A24
:103270006FEA08054A4E03F10103926854BF2A40E1
:1032800048EA02028F02B260F268454E54BF2A40FB
:1032900048EA0202F26072688E03414E54BF2A402F
:1032A00048EA0202C9033E497260326854BF2A40AC
:1032B00048EA0202102B0A607FF46FAF05B0BDE848
:1032C000F08F8668BCF1020F06EA050ED9F80C6093
:1032D00006FA02F646EA0E068660C1F30016D0F83A
:1032E00004E006FA03F62EEA080E46EA0E064660E9
:1032F000D9F80860D0F80CE006FA02F60EEA050EDE
:1033000046EA0E06C6607FF45FAFDE0803F0070EE4
:1033100000EB86064FEA8E0E376A019600970F275C
:10332000D9F8106006FA0EF607FA0EFE009F27EA9B
:103330000E0E019F46EA0E063E6245E74FF0010C75
:103340000CFA06F6324390E74FF0020C0CFA06F640
:1033500032438AE74FF0030C0CFA06F6324384E757
:103360004FF0040C0CFA06F632437EE74FF0050CE2
:103370000CFA06F6324378E74FF0060C0CFA06F624
:10338000324372E7C66806EA050ED9F8086096402F
:1033900046EA0E06C66017E7000002400008024039
:1033A000003C014000380240000C02400010024086
:1033B0000014024000180240001C024002B9090437
:1033C00081617047436901EA030221EA030141EA8E
:1033D00002418161704700BF38B5044600F0F0FA41
:1033E000002C70D0236800220221054684F8342086
:1033F00084F835101A6822F001021A6005E000F026
:10340000DFFA431B052B3CD823681A68D107F6D492
:10341000D4E90125E1682A43A0691D680A432169AE
:103420000A4361690A43E16902430A433349294077
:10343000256A2A430A43616A042929D01A605A6915
:1034400022F007021143DAB259612D486FF30903E4
:10345000A2F110012B4AA2FB01525F294FF0010596
:103460004FF000014FEA121288BF0433805C3F2204
:10347000A3658240E06508469A60616584F835502E
:1034800038BD032320221846626584F8353038BDE4
:10349000D4E90B5129431143A26A1960596921F0FB
:1034A0000701114341F00401002DCCD068B9012A75
:1034B00020D032F00202C6D1EA01C4D54022002356
:1034C000626584F83530012038BDB0F5005F04D066
:1034D000022AF3D9032AEFD0B5E7032AB3D801A013
:1034E00050F822F0BD340008B9340008BD3400089B
:1034F000F5340008B5F1C07FA5D1DFE73F8010E0CB
:10350000807B0008ABAAAAAA70B490F834C0866D7C
:10351000BCF1010F09D0012480F8344090F8354007
:10352000012C05D0002380F83430022070BC704795
:103530000225046880F8355000254565256825F486
:103540008025256063608368402B1AD0A160E2600B
:10355000C16D3F23026C8B40B360236843F01603B8
:103560002360636943F0800363611AB1236843F009
:10357000080323602368002043F00103236070BC2C
:103580007047A260E160E3E770B50446856D00F026
:1035900017FA94F83530022B06D08023012063659A
:1035A000002384F8343070BD236806461A6822F080
:1035B00016021A605A6922F080025A61226C4AB3DC
:1035C0001A6822F008021A601A6822F001021A60D2
:1035D00005E000F0F5F9831B052B11D823681B6863
:1035E00013F00103F5D1E16D3F221846002302FAE2
:1035F00001F10122A96084F8352084F8343070BDCF
:10360000032320221846626584F83530002384F8AD
:10361000343070BDA26C002AD2D1D5E790F83520A5
:103620000346022A03D0802201205A6570470268AF
:103630000521002083F83510136823F0010313607F
:10364000704700BFF0B50022664B83B004461E6889
:1036500001920822D0E916733D689A402A4204D0AC
:1036600001680868400700F1978001229A402A42C9
:1036700004D021684969080600F1888004229A4034
:103680002A4203D021680968890779D410229A4018
:103690002A4203D02168086800075ED420229A409D
:1036A0002A4214D021680868C00610D5BA6094F880
:1036B0003520052A33D00B6813F4802F0B687BD09C
:1036C000190340F18680E36B0BB120469847636D88
:1036D000002B40D0636DDA071AD522680521424BD2
:1036E00084F83510A3FB0636136823F00103B60AED
:1036F000136002E01368DB0704D5019B0133B3427A
:103700000193F7D90122002384F8352084F834305E
:10371000E36C03B3204603B0BDE8F04018470A68E5
:1037200022F016020A604A6922F080024A61226C85
:10373000002A53D00A6822F008020A603F220121C1
:1037400002FA03F30022BB60236D84F8351084F87D
:103750003420002BDED103B0F0BDBA600A6812F449
:10376000802F0A6822D1D20503D40A6822F0080209
:103770000A60226C002A91D020469047E36D8DE7C5
:10378000BA60626D42F0040262657FE7BA60626D02
:1037900042F00202626571E7086820F004000860E8
:1037A000BA60626D42F0010262655EE71103E0D526
:1037B000A26C002AE0D171E713F4807383D10A6808
:1037C00022F010020A60012284F8343084F8352097
:1037D00079E7636C002B7FF478AF78E7A26C002A5E
:1037E000A8D1ABE750000020B5814E1B406D70475B
:1037F0001A4B1A6C42F0805230B583B01A641B6CBD
:10380000174C03F080530193019B236843F48033EA
:10381000236000F0D5F8054605E000F0D1F8401B24
:10382000B0F57A7F17D86368DA03F6D523680C4DB4
:1038300043F40033236000F0C3F8044605E000F0D1
:10384000BFF8001BB0F57A7F05D86B689B03F6D5EF
:10385000002003B030BD032003B030BD003802406B
:103860000070004006494FF6FF0C0002054BCA6885
:1038700000F4E06002EA0C0210430343CB6070479F
:1038800000ED00E00000FA051A4BDB68C3F30223E9
:1038900000B5C3F1070E03F1040CBEF1040F28BFFD
:1038A0004FF0040EBCF1060F1AD9A3F1030C4FF030
:1038B000FF3303FA0CF322EA03024FF0FF33002830
:1038C00003FA0EF321EA030303FA0CF343EA0203BB
:1038D0004FEA0313DBB206DB074A13545DF804FB1F
:1038E00000229446E9E700F00F00044A13545DF803
:1038F00004FB00BF00ED00E000E400E014ED00E098
:10390000002807DB00F01F0101234009024A8B4019
:1039100042F82030704700BF00E100E0431EB3F1E1
:10392000807F01D3012070474FF0E022002005493D
:103930004FF0F00C5361072381F823C090611361AD
:10394000704700BF00ED00E00E494FF47A730E4A55
:1039500010B5097804461268B3FBF1F3B2FBF3F03B
:10396000FFF7DCFF08B90F2C01D9012010BD0022A0
:1039700021464FF0FF30FFF787FF044B00201C600B
:1039800010BD00BF5400002050000020580000204F
:1039900008B50320FFF766FF0F20FFF7D5FF03F000
:1039A00041F9002008BD00BF034A044B11681B7891
:1039B0000B441360704700BFC40200205400002075
:1039C000014B1868704700BFC402002038B5044698
:1039D000FFF7F6FF0546631C02D0044B1B781C441E
:1039E000FFF7EEFF401BA042FAD338BD5400002081
:1039F0002DE9F0419708056816D08C4601EB870643
:103A00009CF801300CF1040C1CF8048C1B041CF80D
:103A1000014C1CF802ECB44543EA086343EA040392
:103A200043EA0E232B60EBD112F003020FD0012AE0
:103A30004FEA870311F827400CD01944022A4B782B
:103A400043EA04232B8002D08B782B70056828680A
:103A5000BDE8F0812C7005682868BDE8F08100BFE2
:103A600030B5550804680CD00B4601EB850EB3F851
:103A700000C0043333F8020C9E4540EA0C4020603D
:103A8000F5D1D30702D531F825302380206830BD29
:103A9000002836D010B5437F044603F0FF0263B31D
:103AA000022223796277F3B92368174A5A619A6828
:103AB00022F018029A6062798AB122691A619A68C2
:103AC000D4E9050122F06002024300209A609A685E
:103AD00022F080020A4301219A60617710BD4FF005
:103AE000FF321A61EBE7D4E90212204600F03AF8FF
:103AF00008B92368DFE7012010BD027703F0AAF8B8
:103B0000CEE70120704700BFB71DC104F8B50668B5
:103B1000022504464577B76847F00107B760076A92
:103B2000022F14D0032F05D0012F15D00123002020
:103B30006377F8BD3AB1043901EB820251F8043FD2
:103B400091423360FAD1012330686377F8BDFFF703
:103B500087FF01236377F8BDFFF74AFF01236377EF
:103B6000F8BD00BFCB071AD51F2310B4013B5C1C66
:103B700021FA03FC15D01CF0010FF7D0182A11D838
:103B8000DFE802F0161010101010101024101010A2
:103B9000101010102110101010101010140001201F
:103BA00070472AB101205DF8044B7047062BF9D805
:103BB000046800206161A36823F018031343A36025
:103BC0005DF8044B7047072BF2D9EBE70F2BEFD9C9
:103BD000E8E700BFF0B50E46144683B0054634440E
:103BE000FFF7EEFE241AFFF7EBFE294B07461B6892
:103BF000C3F3CB3304FB03F301932A68936813F0F8
:103C0000800314D0731C05D1906810F08000FBD1A4
:103C100003B0F0BDFFF7D4FEC01BA0420AD2019B47
:103C20002BBB2A681C46936813F08003EAD1184620
:103C300003B0F0BDD5E900315A68B1F5827F22F0BA
:103C4000E0025A6017D0AA6AB2F5005F07D11A687D
:103C500022F400521A601A6842F400521A600122DB
:103C60000023032085F85D2085F85C30D0E7019BB8
:103C7000013B0193C1E7AA68B2F5004F02D0B2F54B
:103C8000806FE0D11A6822F040021A60DBE700BFC3
:103C9000500000202DE9F0471F46154682B0002451
:103CA0002F4480460E468DF80340FFF789FE3F1AE9
:103CB000FFF786FE324BD8F800A081461B685446B9
:103CC00003EB8303C3EBC3031B0D07FB03F3019358
:103CD000A3681E4207D0B6F5C06F0CD06B1C13D181
:103CE000A3681E42FCD1002002B0BDE8F087A368A3
:103CF00013F4C06FF7D09AF80C306A1CDBB28DF861
:103D000003309DF80330F2D0FFF75AFEA0EB090014
:103D1000B84205D2019BD8F80040FBB91F46D7E74F
:103D2000D8E900315A68B1F5827F22F0E0025A608A
:103D300018D0D8F82820B2F5005F07D11A6822F40D
:103D400000521A601A6842F400521A6001220023DD
:103D5000032088F85D2088F85C30C5E7019B013BB3
:103D60000193B5E7D8F80820B2F5004F02D0B2F5BC
:103D7000806FDED11A6822F040021A60D9E700BFD6
:103D800050000020F0B5134683B00E4617460A4691
:103D90004FF4C0510546FFF77DFF50BB184A194B41
:103DA0001068A3FB00304FF47A73400D03FB00F062
:103DB0006B68B3F5827F019007D113E0019C2B68FB
:103DC000013C01949C68230602D5019C002CF5D18E
:103DD0003B4632464FF4C0612846FFF75BFF40B9CF
:103DE00003B0F0BD3A4631462846FFF7F3FE0028FF
:103DF000EED02B6E032043F020032B6603B0F0BD02
:103E000050000020819F5E16002871D0426AF8B5EC
:103E10000446002A5CD00023C0E90433002194F852
:103E20005D30A16203F0FF01002B5AD0216802230C
:103E3000E66884F85D300B68B6F5E06F23F0400368
:103E40008CBF4FF0000E4FF0010E0B6026F40063A4
:103E50004FEA0E3EB3F5E06F40D1A06A00F4005087
:103E6000636802F0100CA56906F4706603F48272B0
:103E7000A36805F400772D0C03F4044305F0040552
:103E80001A43236903F002031A43636903F0010331
:103E90001A43636B03F008033A433343E6692B4349
:103EA00006F03806256A324343EA0E0305F0800522
:103EB00043EA0C032A43024300200A6001224B60BC
:103EC000CB6923F40063CB61206684F85D20F8BDE4
:103ED0004368B3F5827FA1D0C2619FE70020A06252
:103EE000BEE7204684F85C1002F0CAFE626A9DE7D5
:103EF000012070472DE9F843044691461F46884645
:103F0000089EFFF75DFD94F85D3005466268012B61
:103F10000BD0B2F5827F40F09380D9B2A368002B1A
:103F200040F08E80042940F08B80B9F1000F18BF5B
:103F3000B8F1000F00F00E81002F00F00B8194F813
:103F40005C30012B7CD0012384F85C3094F85D3028
:103F5000042B02D0052384F85D30E0680023C4F808
:103F60004090B0F5E06F2366A4F84470A4F8467062
:103F7000C4F83880A787E787C4E91333236802D8D9
:103F8000012F00F0F480596821F4805159601968BC
:103F9000490603D4196841F040011960012F18BF88
:103FA000002A0CBF01220022B0F5E06F5CD942B1BB
:103FB000424632F8021BD960E38FA263013B9BB2F9
:103FC000E3870127E38F9BB223B9B4F846309BB255
:103FD000002B38D0226893689B070DD5E38F9BB2E6
:103FE00053B147B1A36B33F8021BD160A363E38FD6
:103FF000013B9BB2E3870027936813F001030FD0C6
:10400000B4F8461089B259B1D2681F46236C23F820
:10401000022B2364B4F84630013B9BB2A4F846302F
:10402000FFF7CEFC401BB042CCD3701CCAD001239A
:10403000032084F85D30002384F85C30BDE8F88309
:104040000220BDE8F8832A4631462046FFF79AFE53
:1040500000287AD1012384F85C0084F85D30206E5A
:10406000003818BF0120ECE762B1E28F92B2012A5A
:1040700072D9424632F8021BD960E38FA263023B39
:104080009BB2E3870127E38F9BB223B9B4F8463094
:104090009BB2002BD7D022689368990705D5E38F90
:1040A0009BB213B1002F37D10027936813F001039F
:1040B00019D0B4F8461089B2A9B1B4F84600216C01
:1040C00080B201281CD9D06821F8020B2164B4F811
:1040D0004610023989B2A4F84610B4F8461089B2E5
:1040E000012908D91F46FFF76BFC401BB042CAD319
:1040F000731CC8D09BE7516841F480515160F1E7CF
:10410000127B0A70226C01322264B4F84620013A14
:1041100092B2A4F84620E5E7E18FA36B89B20129AA
:1041200008D933F8021BD160A363E38F023B9BB233
:10413000E387B9E71B781373E38FA26B013B01326E
:104140009BB2A263E3872268AEE7202200232266A7
:1041500084F85C30012074E798F800201A73E38F2C
:10416000A26B013B01329BB2A263E3878AE75A68E4
:1041700042F480525A601A6852063FF576AF1A68C8
:1041800042F040021A6070E790F83C20012A6CD09F
:1041900002680346012030B4022483F83C0083F80F
:1041A0003D404D4C95682C4094600C68602C76D056
:1041B00011D8402C5BD02ED8202C04D000F288805F
:1041C00034F010011FD1916821F07001214341F0BA
:1041D0000701916016E0B4F5805F13D0B4F5005F7D
:1041E00033D0702C0FD19468D1E901502843CD68A9
:1041F00024F47F4140EA052008439060916841F033
:104200007701916000200121002283F83D1083F89E
:104210003C2030BC7047502CF5D14868CC68116AFE
:1042200021F00A010843116A21F00101116291692C
:1042300021F0F00141EA041191611062916821F0CE
:10424000700141F057019160DCE7D1E901509468B9
:104250002843CD6824F47F4140EA0520084390605C
:10426000916841F480419160CCE702207047486832
:10427000CC68116A21F00A010843116A21F001019A
:104280001162916921F0F00141EA0411916110621B
:10429000916821F0700141F047019160B2E74868F0
:1042A000CC68116A21F0A00141EA0011106A20F0E7
:1042B00010001062906920F4704040EA0430906170
:1042C0001162916821F0700141F06701916099E7F6
:1042D000302C3FF478AF96E78800FEFF704700BFB0
:1042E000704700BF704700BF704700BF036870B5DC
:1042F000DE6804461D69AA0701D5B10752D46B07D1
:1043000001D570073BD4290701D5320725D4E8062B
:1043100001D5F10611D4EA0701D5F30764D415F4E9
:10432000025F4CD0300667D4680601D571066DD4A3
:10433000AA0601D5B3064ED470BD23686FF01002F3
:1043400020461A6108222277DB6913F4407F71D07E
:10435000FFF7C6FF00232377DDE723686FF008022D
:1043600020461A6104222277DB699B075FD1FFF7A1
:10437000B5FF2046FFF7B6FF00232377C7E7236882
:104380006FF0040220461A61022222779B6913F41F
:10439000407F49D1FFF7A2FF2046FFF7A3FF00238C
:1043A0002377B0E76FF002021A61012202779B695E
:1043B0009A0733D0FFF794FF002323779FE7EA059E
:1043C000B2D53306B0D523686FF4807220461A61E7
:1043D00000F03EF9A8E723686FF0200220461A613A
:1043E000BDE8704000F030B923686FF0010220464C
:1043F0001A6102F0C5FB92E723686FF4025220466F
:104400001A6100F023F9E9058ED5DCE723686FF027
:10441000400220461A61FFF767FF89E7FFF75EFF5A
:104420002046FFF75FFFC7E7FFF75AFFB7E7FFF741
:1044300057FFA1E7FFF752FF2046FFF753FF89E739
:10444000F0B5364AB0F1804F354DA0EB020203685B
:10445000A0EB050E4C69B2FA82F28F68BEFA8EFEAE
:104460000E684FEA52124FEA5E1E2BD052BBDFF8A5
:10447000BCC0604543D00CF5806C60453FD00CF566
:10448000806C60451ED0BEF1000F1BD1254A9042C2
:1044900039D002F58062904235D0234A904232D022
:1044A000A2F5983290422ED002F5806290422AD036
:1044B00002F58062904226D023F08003C7628662B4
:1044C0001C4314E04D6823F07003D1F80CC02B435B
:1044D000C762866223F4407343EA0C0323F080032F
:1044E0001C4312B9BEF1000F01D00B6903630368CE
:1044F000012243F00403036042610460F0BD23F035
:1045000070034A681343CA6823F44073C7621343B5
:10451000866223F080031C43E9E700BF00000140EE
:1045200000040140004001400048014000040040F8
:1045300070B310B590F83D30044603F0FF0213B39A
:104540002146022384F83D3051F8040BFFF778FF31
:104550000123002084F8483084F83E3084F83F304E
:1045600084F8403084F8413084F8423084F8433095
:1045700084F8443084F8453084F8463084F8473075
:1045800084F83D3010BD80F83C2002F0DBFBD7E71B
:104590000120704790F83C30012B4BD00368024655
:1045A000022030B4244D82F83D00AB4258689C682C
:1045B00029D005F58065AB4225D0204D20F0700054
:1045C000AB4218BFB3F1804F05F580650CBF4FF0CB
:1045D000010C4FF0000CAB4208BF4CF0010C05F58C
:1045E0008065AB4208BF4CF0010C0D682843144DA8
:1045F0005860AB4214BF60464CF0010060B91148EE
:10460000834209D00DE04D6820F4700028430D6806
:1046100020F0700028435860896824F080040C431F
:104620009C6000230121184682F83D1082F83C303E
:1046300030BC704702207047000001400004004079
:104640000040014000180040704700BF704700BFA5
:10465000704700BF026852E8003F23F4907342E8BD
:1046600000310029F7D102F1080353E8003F23F09D
:10467000010302F1080C4CE800310029F3D1036E6C
:10468000012B06D0002320228366C0F88020036619
:10469000704752E8003F23F0100342E80031002940
:1046A000F0D052E8003F23F0100342E80031002927
:1046B000EFD1E7E770B5C66F0446202E23D101B3D2
:1046C0001346B2FA82F25209DBB1A0F85230C1644B
:1046D000A0F85030C0F8842021202568E067206FC2
:1046E000A0B1026505F12802104DC563104D0564A7
:1046F000104DC564FEF708FF38B11023C4F88430AC
:10470000E667012070BD022070BD256840232B6242
:1047100005F1080353E8003F43F0800305F1080169
:1047200041E80032002AF3D1002070BDFD470008A7
:10473000454800085948000838B50446036853E85E
:10474000002F22F4907243E800210029F7D103F1F1
:10475000080252E8002F22F0010203F1080040E8AD
:1047600000210029F3D1226E012A27D099681A4628
:1047700049060ED400230F212025A4F85A301846EC
:104780001162916941F008019161C4F8805023667B
:1047900038BD03F1080252E8002F22F0400203F175
:1047A000080040E800210029F3D1606FB8B1002370
:1047B0000365FEF7E9FEA0B92268DBE753E8002FA6
:1047C00022F0100243E800210029CFD053E8002F47
:1047D00022F0100243E800210029EFD1C6E71A4673
:1047E000C8E7606FFFF702F82028E5D11023032007
:1047F000C4F8843038BD00BF704700BF08B5C36936
:10480000806BB3F5807F18D000230268A0F8523087
:1048100002F1080353E8003F23F0800302F108008F
:1048200040E800310029F3D152E8003F43F0400353
:1048300042E800310029F7D108BDFFF7DDFF08BDD0
:10484000704700BF806B08B5FFF7FAFF08BD00BFD7
:10485000704700BF704700BF806B0268C16F10B522
:10486000D0F8804093681B0601D521290DD09368AC
:104870005B0601D5222C16D0D0F8843043F010030B
:10488000C0F8843002F0C2FB10BD0023A0F8523003
:1048900052E8003F23F0C00342E800310029F7D17D
:1048A0002023C367E3E70023A0F85A30FFF7D2FEC6
:1048B000E2E700BF08B5806B0023A0F85A3002F091
:1048C000A5FB08BD036840F60F0CDA69196812EA07
:1048D0000C0F70B504469D687DD1960602D58D06F5
:1048E00000F1E680206E01281FD0150614D4520670
:1048F00001D54E0600D470BD53E8002F22F04002CF
:1049000043E800210029F7D1202200232046E26756
:10491000E366FFF771FF70BD0806E8D5E36E002B74
:10492000E9D02046BDE870401847D506DDD5C80659
:10493000DBD51021B4F85820196299684E0640F171
:104940000481606F0168496889B2002900F03681EE
:10495000914280F03381A4F85A10C169B1F5807F8B
:104960002FD053E8002F22F4807243E80021002961
:10497000F7D103F1080252E8002F22F0010203F1FF
:10498000080545E800210029F3D103F1080252E8A7
:10499000002F22F0400203F1080545E8002100291C
:1049A000F3D12022C4F88020216653E8002F22F0A2
:1049B000100243E800210029F7D1FEF7E5FDB4F825
:1049C0005820022320466366B4F85A10511A89B25F
:1049D00002F0F8FA70BD15F001051E4640F08F8018
:1049E0007A4801423FF47EAFD0070ED5C80540F1AA
:1049F000A88001201862D4F8840040F00100C4F8B7
:104A0000840090075DD5002D7DD1500770D510072B
:104A100000F18D8010050AD54D0108D54FF40060D6
:104A20001862D4F8843043F02003C4F88430D4F8FA
:104A30008430002B3FF45FAF900601D58A0679D40D
:104A4000D4F884202046B36802F0280203F0400323
:104A500053EA020500F0AD80FFF7FCFDB3685B068A
:104A60005ED506F1080353E8003F23F0400306F14A
:104A7000080141E8003262B1236803F1080252E8FC
:104A8000002F22F0400203F1080040E80021002935
:104A9000F3D1606F002843D04D4B0365FEF7BEFD98
:104AA00000283FF428AF606FBDE87040036D1847E1
:104AB000836E002B7FF436AF1DE7C80599D49007AD
:104AC00021D4500714D5002DA1D004201507186259
:104AD000D4F8840040F00200C4F884009AD508207D
:104AE0001862D4F8840040F00800C4F8840091E70C
:104AF00010078FD501F0200028438BD0EFE7D007B7
:104B0000DBD4900710D5022055071862D4F8840032
:104B100040F00400C4F88400D7D41007DFD479E74C
:104B2000204602F073FA70BD5507CED4F5E78D0626
:104B3000D5D46FE7A36E002B82D020469847266815
:104B40007EE790073FF561AFBBE7B4F85A00B4F8D1
:104B50005A10121A88B291B200293FF4CCAE002844
:104B60003FF4C9AE53E8002F22F4907243E80020CE
:104B70000028F7D103F1080252E8002F22F00102C9
:104B800003F1080545E800200028F3D12022A066A3
:104B9000C4F88020206653E8002F22F0100243E87A
:104BA00000200028F7D102232046636602F00AFAAB
:104BB00070BD02F02BFAC4F8845070BD91427FF4AE
:104BC0009AAEC369B3F5807FEDD070BD20010004BB
:104BD000B5480008012208B50346806B4266026EA4
:104BE000012A12D1B0F858101B684A08A0F85A20C0
:104BF0005B689BB2994201D3A0F85A30B0F85A30A2
:104C0000C91A89B202F0DEF908BDFFF723FE08BD1C
:104C100008B5C3698446806BB3F5807F29D0002234
:104C20000368A0F85A2053E8002F22F4807243E86A
:104C300000210029F7D103F1080252E8002F22F0E9
:104C4000010203F1080E4EE800210029F3D103F11F
:104C5000080252E8002F22F0400203F1080E4EE84D
:104C600000210029F3D12022C0F88020026E012A01
:104C700017D000234366026E012A23D1DCF80020FE
:104C8000A0F85A305368B0F858109BB2994201D935
:104C9000A0F85A30B0F85A30C91A89B202F092F925
:104CA00008BD53E8002F22F0100243E8002100293C
:104CB000DFD053E8002F22F0100243E80021002942
:104CC000EFD1D6E7FFF7C4FD08BD00BF01698268D8
:104CD00038B5044603680A43C06961691D680A4320
:104CE000874902432940E5680A431A605968A26966
:104CF00021F4405129435960216A0A43996821F4FB
:104D000030610A437F498B429A603FD07E4A93428A
:104D100017D07E4A934200F0AD807D4A934200F066
:104D2000B4807C4A934273D07B4A93423DD07B4A05
:104D3000934200F0C1807A4A934200F0CC80012077
:104D40004DE0784BD3F8903003F00C030C2BF6D8E1
:104D500001A252F823F000BF274E00083F4D000883
:104D60003F4D00083F4D0008ED4D00083F4D000845
:104D70003F4D00083F4D0008BB4D00083F4D000867
:104D80003F4D00083F4D00089F4D0008654BD3F88C
:104D9000903003F00303022B0FD0032B2ED1B0F57C
:104DA000004F5ED04FF400400BE05E4BD3F89030E4
:104DB00003F44063B3F5006F15D1B0F5004F3AD05E
:104DC000594863684FF6EF7200EB5300B0FBF3F005
:104DD000A0F110039342B2D82368D86000200023CA
:104DE000C4E91A3338BD00F285804BB1B0F5004FED
:104DF0003AD0FDF793FE0028F0D0E2E7012BF5D082
:104E0000B0F5004F4DD0FDF773FF0028E6D0D8E78E
:104E1000444BD3F8903003F44073B3F5007FCCD00B
:104E200045D8002BE2D1B0F5004F3DD0FDF750FF43
:104E30000028D3D0C5E73D4863684FF6EF7200EB1A
:104E40005300B0FBF3F3A3F1100191423FF677AFAB
:104E500023F00F02C3F34203216892B21343CB60E5
:104E6000BCE74FF48030E7E7FDF758FE0028B5D0E7
:104E70004000E1E72B4BD3F8903003F03003202BB8
:104E80009BD0CED9302B8AD059E7264BD3F890301F
:104E900003F0C003802B90D0C3D9C02B3FF47FAF69
:104EA0004DE7FDF725FFE1E7FDF712FFDEE7B3F57C
:104EB000407F3FF474AF42E71A4BD3F8903003F4CD
:104EC0004053B3F5005F3FF478AFAAD9B3F5405F24
:104ED0003FF465AF33E7134BD3F8903003F440430E
:104EE000B3F5004F3FF469AF9BD9B3F5404F3FF4A2
:104EF00056AF24E7B3F5406F3FF451AF1FE700BF53
:104F0000F369FFEF001001400044004000480040FA
:104F1000004C004000500040001401400078004068
:104F2000007C0040003802400024F4000048E80102
:104F3000436A1A0710B406D50168446B4A6822F424
:104F4000004222434A60DC0706D50168846A4A6849
:104F500022F4003222434A60990706D50168C46AE8
:104F60004A6822F4803222434A605A0706D5016813
:104F7000046B4A6822F4802222434A60DC0606D58C
:104F80000168846B8A6822F4805222438A60990601
:104F900006D50168C46B8A6822F4005222438A60F5
:104FA0005A060AD50168046C4A68B4F5801F22F4D9
:104FB000801242EA04024A600BD01B0606D5026842
:104FC000816C536823F400230B4353605DF8044B5A
:104FD00070474A68446C22F4C00222434A60ECE7FE
:104FE0002DE9F047089E0C4607461546984601688D
:104FF000CA6934EA02020CBF01230023AB4209D183
:10500000731C0BD1CB6934EA03030CBF01230023CB
:10501000AB42F7D000231846BDE8F087FEF7D0FC7E
:10502000A0EB0800B6FA86F9B0424FEA59191AD82F
:10503000CEB139680B685807DAD5802CD8D0402C0F
:10504000D6D0CB6913F0080A0FD1CA691205CFD5A3
:105050004FF4006238460A62FFF7FCFA202287F814
:1050600078A0C7F884200323D5E7082438460C62CB
:10507000FFF7F0FA0123C7F8844087F87890CAE771
:1050800070B50025044682B0C0F88450FEF798FC45
:1050900023681B681B070CD4002320221846E267F4
:1050A000C4F8802023666366002384F8783002B059
:1050B00070BD6FF07E4603462A464FF4001120462D
:1050C0000096FFF78DFF0028E6D0226852E8003FE7
:1050D00023F0800342E800310029F7D12023032088
:1050E000E367E1E770B51346002622220546C0F8C3
:1050F00084604165A0F85830C0F88020406F2C686B
:1051000068B10A4604F124011A4C0665C4631A4CBE
:1051100004641A4CC464FEF7F7F918BB2C682B69B9
:105120003BB154E8003F43F4807344E80032002A66
:10513000F7D104F1080353E8003F43F0010304F101
:10514000080141E80032002AF3D104F1080353E8D2
:10515000003F43F0400304F1080242E80030002819
:10516000F3D170BD102220230120C5F88420C5F89A
:10517000803070BD114C0008D54B0008594800081C
:1051800000283AD0F8B51D46C36F0E4617460446B0
:1051900073B324232268616AE367136823F0010371
:1051A000136009BB2046FFF791FD01281AD0236840
:1051B0002D0420469A6845EA475542F480429A6099
:1051C0009A6822F4004232439A601A686FF31942D7
:1051D00015431D601A6842F001021A60BDE8F840EC
:1051E000FFF74EBF0120F8BD2046FFF7A1FED9E72B
:1051F00080F8783001F0D8FDCBE70120704700BF80
:1052000070B5D0F88060202E10D169B1B2FA82F565
:105210006D094AB10123044603664566FFF762FF44
:1052200018B9236E012B03D0012070BD022070BD80
:1052300022681023136252E8003F43F0100342E853
:1052400000310029F7D170BD78B10023C0F8B83221
:10525000C0F8C432C0F8D03209B1C0F8B41201238A
:10526000027080F89C3200F0FDBF0320704700BF41
:1052700010B5002382B0ADF8063089B18B6A0446C0
:10528000C0F8B81223B10DF106009847C4F8D00257
:10529000D4F8D83200200133C4F8D83202B010BD9F
:1052A000032002B010BD00BF01F010B8D0F8B83232
:1052B0000BB11B6818471846704700BF08B5D0F8F7
:1052C000B8325B689847002818BF032008BD00BFAC
:1052D00038B500F2AA250446284600F02FFCB4F8A1
:1052E000B03294F8AA120122C4F8983201F01F03D8
:1052F000C4F8942293420ED0022B06D08BB92946D3
:105300002046BDE8384000F06BB929462046BDE88C
:10531000384000F063BB29462046BDE8384000F025
:105320001DBB204601F08001BDE8384000F0F4BF0D
:1053300010B5044629B9D0F89422032A10D00020D1
:1053400010BD90F89C32032BF9D1D0F8B8329B698C
:10535000002BF4D00022BDE81040C0F8D42218473A
:105360000B46B0F86021D0F85811914208D890F857
:105370009C22032A12D0204600F056FC002010BDCB
:105380008B1AD0F864119A421144C0F8583138BFD2
:105390001A46C0F8641100F03DFCD0E7D0F8B822FE
:1053A0001269002AE7D0C0F8D4329047E3E700BF83
:1053B00070B5044659B9D0F89432022B16D094F83F
:1053C000A03213B1002384F8A032002070BD90F801
:1053D0009C32032BF9D1D0F8B8325B69002BF4D0A2
:1053E0000022BDE87040C0F8D422184782690D46FB
:1053F000038C9A4210D81DD094F89C32032B2CD0E9
:105400008021204600F088FF204600F019FC94F827
:10541000A032002BD9D0D5E7416AD21A1944826153
:10542000416200F0DDFB2B462A462946204600F06B
:10543000B7FFC4E743699A42DED8D0F89822934276
:10544000DAD20A4600F0CCFB2B462A4629462046F3
:10545000C4F8985200F0A4FFB1E7D4F8B832DB6882
:10546000002BCDD000222046C4F8D4229847C7E7AD
:10547000F8B500210122D0F8B832044680F89C2209
:105480004160C0F89412C0F8A41280F8A0121BB1B9
:105490005B680BB19847B8B9002700224025012668
:1054A00040231146204600F01DFF2B46002280219C
:1054B0002046A4F8605184F8636100F013FF384679
:1054C00084F823602584F8BD0327E6E7034600201F
:1054D0001974704790F89C220346042A04D090F86F
:1054E0009C22D2B280F89D220422002083F89C22C4
:1054F000704700BF90F89C32042B04D190F89D3285
:10550000DBB280F89C320020704700BF90F89C22EC
:10551000032A01D00020704708B5D0F8B83213B183
:10552000DB6903B19847002008BD00BFD0F8D42242
:10553000AE3250F8222062B108B590F89C32032BAD
:1055400001D0002008BD136A002BFAD09847002034
:1055500008BD0320704700BFD0F8D422AE3250F807
:10556000222062B108B590F89C32032B01D00020B4
:1055700008BD536A002BFAD09847002008BD0320CD
:10558000704700BF002070470121D0F8B82280F892
:105590009C1242B15268017908B5904708B90020C1
:1055A00008BD032008BD0020704700BF00207047E1
:1055B000002070470278B0F802C01346944503D823
:1055C0000CE09C450AD902781044134442789BB2FF
:1055D000052AF6D182788A42F3D1704700207047BD
:1055E00070B50B7882B00D46044603F06003202BA3
:1055F00028D0402B26D05BB18021204600F08CFEC5
:105600000021204600F088FE0025284602B070BD2B
:105610004B78092BF0D801A252F823F095560008D8
:10562000BD560008F9550008DB560008F95500087A
:10563000F356000835570008F95500088957000847
:105640005D560008D4F8D43229462046AE3354F8CB
:1056500023309B6802B0BDE8704018478978B54D8B
:105660000129297000F25E8190F89C32022BDEB293
:1056700000F03E81032E00F01B81802100F04CFEE3
:105680000021204600F048FE29782046FFF716FE4C
:105690000325BAE790F89C32013B022BACD8CA88AC
:1056A000022AA9D1D0F8A4320146002B0CBF012355
:1056B000032341F80C3F00F085FAA5E790F89C32EF
:1056C000013B022B98D84B88012B9DD1002320460B
:1056D000C4F8A43200F0A8FA96E74B88012BF6D064
:1056E000022B89D18B881B0A80F8A03200F09CFA2B
:1056F0008AE78B88002B7FF47FAFCB88002B7FF469
:105700007BAF4B887F2B3FF677AF90F89C22032A24
:105710003FF472AFDDB2294680F89E5200F028FEB9
:10572000204600F081FA002D00F01481022384F855
:105730009C3269E74A880021130AADF80610013B44
:105740000E2B3FF659AF01A151F823F03358000852
:105750001958000843580008F9550008F955000881
:10576000E9570008FF570008F9550008F9550008E7
:10577000F9550008F9550008F9550008F9550008D1
:10578000F9550008B1570008CA88012A7FF434AFE0
:1057900090F89C32022BD9B200F2BD8000293FF470
:1057A0002BAF0146002341F8083F00F00BFA2BE72E
:1057B000D0F8B432DB69002B3FF41EAF0DF10601C7
:1057C000207C9847EB88002B6ED0BDF80620002A7D
:1057D0003FF412AF9A420146204628BF1A46ADF860
:1057E000062000F0EFF90FE7037C002B7FF404AFF5
:1057F000D0F8B8320DF106005B6B9847E2E7037C06
:10580000002B7FF4F9AED0F8B8320DF106001B6B17
:10581000984707234370D5E7027CD0F8B832002AB6
:1058200040F08A809B6A0DF106009847022343707E
:10583000C8E7D0F8B4320DF10601007C1B68984728
:10584000C0E7D2B2052A3FF6D7AEDFE802F0211B4F
:10585000150F0903D0F8B4329B69002BAED1CBE60B
:10586000D0F8B4325B69002BA8D1C5E6D0F8B432C9
:105870001B69002BA2D1BFE6D0F8B432DB68002B45
:105880009CD1B9E6D0F8B4329B68002B96D1B3E630
:10589000D0F8B4325B68002B90D1ADE602234160B2
:1058A00080F89C32FFF70AFD204600F0BDF9ABE618
:1058B0000029F3D041680129F6D0C9B2FFF7FEFCF8
:1058C000297820466160FFF7F1FC05460028EBD0FF
:1058D0008021204600F020FD0021204600F01CFD24
:1058E00021792046FFF7EAFC022384F89C328CE6FB
:1058F0000029D9D001214160FFF7D8FC054610B33B
:105900008021204600F008FD0021204600F004FD23
:1059100084F89C6279E603297FF46EAE011D00F0E5
:1059200051F971E6802100F0F7FC0021204600F0DB
:10593000F3FCADE6C8020020DB6A0DF106009847D3
:10594000022343703EE7204600F06EF9032384F8FB
:105950009C3259E6012384F89C3255E638B50B7821
:105960000D4604465A060DD503F06002402A09D0C0
:10597000802100F0D1FC0021204600F0CDFC002564
:10598000284638BD94F89C32013B022B02D8297975
:10599000012908D98021204600F0BEFC00212046C4
:1059A00000F0BAFCEBE72046FFF700FE90B9D4F810
:1059B000B8329B6873B12946C4F8D4022046984790
:1059C000EB880546002BDBD10028D9D1204600F01A
:1059D0002BF9D5E70325284638BD00BF30B50C4666
:1059E0008A8883B005462378D1B203F06003202B68
:1059F00048D0402B46D053B18021284600F08CFC83
:105A00000021284600F088FC002003B030BD6378F8
:105A1000012B26D0032B47D0002BEDD190F89C32E0
:105A2000022BD8B25BD00328E6D101F00F03120697
:105A300003EB830305EB830363D493F86331002BFB
:105A4000DAD014240B4604FB015404F5AA74002B8D
:105A500064D121460222284601F80E3F00F0B2F838
:105A6000D2E790F89C32022BDAB22FD0032AC3D1AE
:105A70006388002BC8D14B0657D12846019100F00E
:105A8000D3F801992846FFF793FD0028BCD1D5F83B
:105A9000B832C5F8D4029B68002BB5D02146284601
:105AA00003B0BDE83040184790F89C32022BDAB2C0
:105AB0000CD0032AA0D1638823B9480602D0E3881A
:105AC000002B37D0284600F0AFF89DE74A0693D068
:105AD00000F022FC8021284600F01EFC94E74806D6
